{"abi":[{"type":"constructor","inputs":[{"name":"rescueDelay","type":"uint32","internalType":"uint32"}],"stateMutability":"nonpayable"},{"type":"function","name":"FACTORY","inputs":[],"outputs":[{"name":"","type":"address","internalType":"address"}],"stateMutability":"view"},{"type":"function","name":"PROXY_BYTECODE_HASH","inputs":[],"outputs":[{"name":"","type":"bytes32","internalType":"bytes32"}],"stateMutability":"view"},{"type":"function","name":"RESCUE_DELAY","inputs":[],"outputs":[{"name":"","type":"uint256","internalType":"uint256"}],"stateMutability":"view"},{"type":"function","name":"cancel","inputs":[{"name":"immutables","type":"tuple","internalType":"struct IBaseEscrow.Immutables","components":[{"name":"orderHash","type":"bytes32","internalType":"bytes32"},{"name":"hashlock","type":"bytes32","internalType":"bytes32"},{"name":"maker","type":"uint256","internalType":"Address"},{"name":"taker","type":"uint256","internalType":"Address"},{"name":"token","type":"uint256","internalType":"Address"},{"name":"amount","type":"uint256","internalType":"uint256"},{"name":"safetyDeposit","type":"uint256","internalType":"uint256"},{"name":"timelocks","type":"uint256","internalType":"Timelocks"}]}],"outputs":[],"stateMutability":"nonpayable"},{"type":"function","name":"publicCancel","inputs":[{"name":"immutables","type":"tuple","internalType":"struct IBaseEscrow.Immutables","components":[{"name":"orderHash","type":"bytes32","internalType":"bytes32"},{"name":"hashlock","type":"bytes32","internalType":"bytes32"},{"name":"maker","type":"uint256","internalType":"Address"},{"name":"taker","type":"uint256","internalType":"Address"},{"name":"token","type":"uint256","internalType":"Address"},{"name":"amount","type":"uint256","internalType":"uint256"},{"name":"safetyDeposit","type":"uint256","internalType":"uint256"},{"name":"timelocks","type":"uint256","internalType":"Timelocks"}]}],"outputs":[],"stateMutability":"nonpayable"},{"type":"function","name":"publicWithdraw","inputs":[{"name":"secret","type":"bytes32","internalType":"bytes32"},{"name":"immutables","type":"tuple","internalType":"struct IBaseEscrow.Immutables","components":[{"name":"orderHash","type":"bytes32","internalType":"bytes32"},{"name":"hashlock","type":"bytes32","internalType":"bytes32"},{"name":"maker","type":"uint256","internalType":"Address"},{"name":"taker","type":"uint256","internalType":"Address"},{"name":"token","type":"uint256","internalType":"Address"},{"name":"amount","type":"uint256","internalType":"uint256"},{"name":"safetyDeposit","type":"uint256","internalType":"uint256"},{"name":"timelocks","type":"uint256","internalType":"Timelocks"}]}],"outputs":[],"stateMutability":"nonpayable"},{"type":"function","name":"rescueFunds","inputs":[{"name":"token","type":"address","internalType":"address"},{"name":"amount","type":"uint256","internalType":"uint256"},{"name":"immutables","type":"tuple","internalType":"struct IBaseEscrow.Immutables","components":[{"name":"orderHash","type":"bytes32","internalType":"bytes32"},{"name":"hashlock","type":"bytes32","internalType":"bytes32"},{"name":"maker","type":"uint256","internalType":"Address"},{"name":"taker","type":"uint256","internalType":"Address"},{"name":"token","type":"uint256","internalType":"Address"},{"name":"amount","type":"uint256","internalType":"uint256"},{"name":"safetyDeposit","type":"uint256","internalType":"uint256"},{"name":"timelocks","type":"uint256","internalType":"Timelocks"}]}],"outputs":[],"stateMutability":"nonpayable"},{"type":"function","name":"withdraw","inputs":[{"name":"secret","type":"bytes32","internalType":"bytes32"},{"name":"immutables","type":"tuple","internalType":"struct IBaseEscrow.Immutables","components":[{"name":"orderHash","type":"bytes32","internalType":"bytes32"},{"name":"hashlock","type":"bytes32","internalType":"bytes32"},{"name":"maker","type":"uint256","internalType":"Address"},{"name":"taker","type":"uint256","internalType":"Address"},{"name":"token","type":"uint256","internalType":"Address"},{"name":"amount","type":"uint256","internalType":"uint256"},{"name":"safetyDeposit","type":"uint256","internalType":"uint256"},{"name":"timelocks","type":"uint256","internalType":"Timelocks"}]}],"outputs":[],"stateMutability":"nonpayable"},{"type":"function","name":"withdrawTo","inputs":[{"name":"secret","type":"bytes32","internalType":"bytes32"},{"name":"target","type":"address","internalType":"address"},{"name":"immutables","type":"tuple","internalType":"struct IBaseEscrow.Immutables","components":[{"name":"orderHash","type":"bytes32","internalType":"bytes32"},{"name":"hashlock","type":"bytes32","internalType":"bytes32"},{"name":"maker","type":"uint256","internalType":"Address"},{"name":"taker","type":"uint256","internalType":"Address"},{"name":"token","type":"uint256","internalType":"Address"},{"name":"amount","type":"uint256","internalType":"uint256"},{"name":"safetyDeposit","type":"uint256","internalType":"uint256"},{"name":"timelocks","type":"uint256","internalType":"Timelocks"}]}],"outputs":[],"stateMutability":"nonpayable"},{"type":"event","name":"EscrowCancelled","inputs":[],"anonymous":false},{"type":"event","name":"FundsRescued","inputs":[{"name":"token","type":"address","indexed":false,"internalType":"address"},{"name":"amount","type":"uint256","indexed":false,"internalType":"uint256"}],"anonymous":false},{"type":"event","name":"Withdrawal","inputs":[{"name":"secret","type":"bytes32","indexed":false,"internalType":"bytes32"}],"anonymous":false},{"type":"error","name":"InvalidCaller","inputs":[]},{"type":"error","name":"InvalidImmutables","inputs":[]},{"type":"error","name":"InvalidSecret","inputs":[]},{"type":"error","name":"InvalidTime","inputs":[]},{"type":"error","name":"NativeTokenSendingFailure","inputs":[]},{"type":"error","name":"SafeTransferFailed","inputs":[]}],"bytecode":{"object":"0x60e0346100ec57601f610dc438819003918201601f19168301916001600160401b038311848410176100f0578084926020946040528339810103126100ec575163ffffffff81168091036100ec573360a0526080526e5af43d82803e903d91602b57fd5bf360205230601152763d602d80600a3d3981f3363d3d373d3d3d363d730000003060881c175f52603760092060c052604051610cbf9081610105823960805181818160b90152610507015260a05181818161066f015281816109be01528181610a6f0152610af5015260c0518181816106020152818161099301528181610a440152610aca0152f35b5f80fd5b634e487b7160e01b5f52604160045260245ffdfe6080604090808252600480361015610015575f80fd5b60e05f35811c9283630af97558146107755750826323305703146106935782632dd310001461062557826334862b6a146105cd5782634649088b146104695782636c10c0c8146102bb57826390d3252f146101e8578263daff233e146100e057505063f56cd69c14610085575f80fd5b346100dc575f7ffffffffffffffffffffffffffffffffffffffffffffffffffffffffffffffffc3601126100dc57602090517f00000000000000000000000000000000000000000000000000000000000000008152f35b5f80fd5b8390346100dc576101007ffffffffffffffffffffffffffffffffffffffffffffffffffffffffffffffffc3601126100dc5763ffffffff60e43580921c9160601c1681018091116101bc57421061019657610139610a18565b61016473ffffffffffffffffffffffffffffffffffffffff60a4359080604435169060843516610b25565b61017060c43533610bbd565b7f6e3be9294e58d10b9c8053cfd5e09871b67e442fe394d6b0870d336b9df984a95f80a1005b517f6f7eac26000000000000000000000000000000000000000000000000000000008152fd5b6011837f4e487b71000000000000000000000000000000000000000000000000000000005f525260245ffd5b5082346100dc576101007ffffffffffffffffffffffffffffffffffffffffffffffffffffffffffffffffc3601126100dc5773ffffffffffffffffffffffffffffffffffffffff90816064351633036102935761024660e435610909565b421061026b5761016482610258610a18565b60a4359080604435169060843516610b25565b9050517f6f7eac26000000000000000000000000000000000000000000000000000000008152fd5b9050517f48f5c3ed000000000000000000000000000000000000000000000000000000008152fd5b5082346100dc576101407ffffffffffffffffffffffffffffffffffffffffffffffffffffffffffffffffc3601126100dc5781359160243573ffffffffffffffffffffffffffffffffffffffff9182821682036100dc576101007fffffffffffffffffffffffffffffffffffffffffffffffffffffffffffffffbc3601126100dc578260a435163303610442576101243561035581610950565b421061041a5761036490610909565b4210156103f357610373610967565b845f5260205f20606435036103cc577f0ce781a18c10c8289803c7c4cfd532d797113c4b41c9701ffad7d0a632ac555b602086866103b860e4358760c4358a16610b25565b6103c56101043533610bbd565b51908152a1005b83517fabab6bd7000000000000000000000000000000000000000000000000000000008152fd5b83517f6f7eac26000000000000000000000000000000000000000000000000000000008152fd5b5083517f6f7eac26000000000000000000000000000000000000000000000000000000008152fd5b83517f48f5c3ed000000000000000000000000000000000000000000000000000000008152fd5b8390346100dc576101407ffffffffffffffffffffffffffffffffffffffffffffffffffffffffffffffffc3601126100dc5782359073ffffffffffffffffffffffffffffffffffffffff908183168093036100dc57602435916101007fffffffffffffffffffffffffffffffffffffffffffffffffffffffffffffffbc3601126100dc5760a4351633036105a4576104ff610967565b61012435901c7f000000000000000000000000000000000000000000000000000000000000000001421061057c577fc4474c2790e13695f6d2b6f1d8e164290b55370f87a542fd7711abe0a1bf40ac93508161056c5761055f8133610bbd565b82519182526020820152a1005b610577813384610b25565b61055f565b5050517f6f7eac26000000000000000000000000000000000000000000000000000000008152fd5b505050517f48f5c3ed000000000000000000000000000000000000000000000000000000008152fd5b83346100dc575f7ffffffffffffffffffffffffffffffffffffffffffffffffffffffffffffffffc3601126100dc57602090517f00000000000000000000000000000000000000000000000000000000000000008152f35b83346100dc575f7ffffffffffffffffffffffffffffffffffffffffffffffffffffffffffffffffc3601126100dc576020905173ffffffffffffffffffffffffffffffffffffffff7f0000000000000000000000000000000000000000000000000000000000000000168152f35b8390346100dc576106a3366108aa565b91909373ffffffffffffffffffffffffffffffffffffffff9182606085013516330361074d578301356106d581610950565b421061041a576106e490610909565b4210156103f3576106f483610a9f565b845f5260205f206020840135036103cc577f0ce781a18c10c8289803c7c4cfd532d797113c4b41c9701ffad7d0a632ac555b602086866103c560c08861074560a08201353360808401358c16610b25565b013533610bbd565b5083517f48f5c3ed000000000000000000000000000000000000000000000000000000008152fd5b848284346100dc57610786366108aa565b9290948184013580921c63ffffffff8360201c16810180911161087e57421061085757506107b390610909565b4210156108305773ffffffffffffffffffffffffffffffffffffffff906107d983610a9f565b845f5260205f206020840135036103cc577f0ce781a18c10c8289803c7c4cfd532d797113c4b41c9701ffad7d0a632ac555b602086866103c560c08861074560a082013560608301358b1660808401358c16610b25565b82517f6f7eac26000000000000000000000000000000000000000000000000000000008152fd5b90507f6f7eac26000000000000000000000000000000000000000000000000000000008152fd5b6011847f4e487b71000000000000000000000000000000000000000000000000000000005f525260245ffd5b906101207ffffffffffffffffffffffffffffffffffffffffffffffffffffffffffffffffc8301126100dc576101007fffffffffffffffffffffffffffffffffffffffffffffffffffffffffffffffdc6004359301126100dc57602490565b63ffffffff8160e01c9160401c1681018091116109235790565b7f4e487b71000000000000000000000000000000000000000000000000000000005f52601160045260245ffd5b63ffffffff8160e01c911681018091116109235790565b73ffffffffffffffffffffffffffffffffffffffff6055600b60405161010090816044823720604051907f0000000000000000000000000000000000000000000000000000000000000000604083015260208201527f000000000000000000000000000000000000000000000000000000000000000081520160ff8153201630036109ee57565b60046040517fa269484a000000000000000000000000000000000000000000000000000000008152fd5b73ffffffffffffffffffffffffffffffffffffffff6055600b60405161010090816004823720604051907f0000000000000000000000000000000000000000000000000000000000000000604083015260208201527f000000000000000000000000000000000000000000000000000000000000000081520160ff8153201630036109ee57565b6055600b73ffffffffffffffffffffffffffffffffffffffff926040516101008092823720604051907f0000000000000000000000000000000000000000000000000000000000000000604083015260208201527f000000000000000000000000000000000000000000000000000000000000000081520160ff8153201630036109ee57565b9160446020925f92604051917fa9059cbb0000000000000000000000000000000000000000000000000000000083526004830152602482015282855af19081610b9b575b5015610b7157565b60046040517ffb7f5079000000000000000000000000000000000000000000000000000000008152fd5b90503d15610bb5575060015f5114601f3d11165b5f610b69565b3b1515610baf565b5f80809381935af13d15610c845767ffffffffffffffff3d818111610c575760405191601f82017fffffffffffffffffffffffffffffffffffffffffffffffffffffffffffffffe0908116603f0116830190811183821017610c575760405281525f60203d92013e5b15610c2d57565b60046040517f8a0332d5000000000000000000000000000000000000000000000000000000008152fd5b7f4e487b71000000000000000000000000000000000000000000000000000000005f52604160045260245ffd5b610c2656fea2646970667358221220cb00d3a9961f9b0a0ab6c29bc8faf8d6bada7994ed7d0219284fb356ea67798064736f6c63430008170033","linkReferences":{}},"methodIdentifiers":{"FACTORY()":"2dd31000","PROXY_BYTECODE_HASH()":"34862b6a","RESCUE_DELAY()":"f56cd69c","cancel((bytes32,bytes32,uint256,uint256,uint256,uint256,uint256,uint256))":"90d3252f","publicCancel((bytes32,bytes32,uint256,uint256,uint256,uint256,uint256,uint256))":"daff233e","publicWithdraw(bytes32,(bytes32,bytes32,uint256,uint256,uint256,uint256,uint256,uint256))":"0af97558","rescueFunds(address,uint256,(bytes32,bytes32,uint256,uint256,uint256,uint256,uint256,uint256))":"4649088b","withdraw(bytes32,(bytes32,bytes32,uint256,uint256,uint256,uint256,uint256,uint256))":"23305703","withdrawTo(bytes32,address,(bytes32,bytes32,uint256,uint256,uint256,uint256,uint256,uint256))":"6c10c0c8"},"storageLayout":{"storage":[],"types":{}},"id":6}